:100000000C942A000C9434000C9434000C943400AA
:100010000C9434000C9434000C9434000C94340090
:100020000C9434000C9434000C9434000C94340080
:100030000C9434000C9434000C9434000C94340070
:100040000C9434000C9434000C9434000C94340060
:100050000C94340011241FBECFE5D8E0DEBFCDBF25
:100060000E94F3020C9445030C940000813049F087
:10007000813028F0823039F0833041F406C06ABB09
:10008000089567BB089564BB089561BB0895442338
:10009000C9F1413009F06EC0813099F0813030F003
:1000A0008230D1F0833009F065C021C02AB381E0ED
:1000B00090E002C0880F991F6A95E2F7282B2ABBAF
:1000C000089527B381E090E002C0880F991F6A95D8
:1000D000E2F7282B27BB089524B381E090E002C00B
:1000E000880F991F6A95E2F7282B24BB089521B346
:1000F00081E090E002C0880F991F6A95E2F7282BF3
:1001000021BB0895813099F0813028F08230D9F0F8
:10011000833081F524C02AB381E090E002C0880FCB
:10012000991F6A95E2F7809582238ABB089527B3C9
:1001300081E090E002C0880F991F6A95E2F78095F0
:10014000822387BB089524B381E090E002C0880F2A
:10015000991F6A95E2F78095822384BB089521B3A5
:1001600081E090E002C0880F991F6A95E2F78095C0
:10017000822381BB0895813049F0813028F082309C
:1001800039F0833041F406C06BBB089567BB089516
:1001900064BB089561BB08954423C9F1413009F05F
:1001A0006EC0813099F0813030F08230D1F08330F0
:1001B00009F065C021C02BB381E090E002C0880F38
:1001C000991F6A95E2F7282B2BBB089528B381E08D
:1001D00090E002C0880F991F6A95E2F7282B28BB90
:1001E000089525B381E090E002C0880F991F6A95B9
:1001F000E2F7282B25BB089522B381E090E002C0EE
:10020000880F991F6A95E2F7282B22BB0895813049
:1002100099F0813028F08230D9F0833081F524C004
:100220002BB381E090E002C0880F991F6A95E2F736
:10023000809582238BBB089528B381E090E002C0B3
:10024000880F991F6A95E2F78095822388BB0895ED
:1002500025B381E090E002C0880F991F6A95E2F70C
:100260008095822385BB089522B381E090E002C08F
:10027000880F991F6A95E2F78095822382BB0895C3
:10028000FB01813049F0813028F0823039F0833031
:1002900051F407C089B303C086B301C083B3808320
:1002A000089580B380830895FA01813049F0813048
:1002B00028F0823039F08330C1F40EC089B303C016
:1002C00086B301C083B390E002C0959587956A9587
:1002D000E2F781708083089580B390E002C0959525
:1002E00087956A95E2F7817080830895813091F057
:1002F000813028F08230C9F0833061F521C02BB302
:1003000081E090E002C0880F991F6A95E2F72827E4
:100310002BBB089528B381E090E002C0880F991F9D
:100320006A95E2F7282728BB089525B381E090E07D
:1003300002C0880F991F6A95E2F7282725BB089508
:1003400022B381E090E002C0880F991F6A95E2F71E
:10035000282722BB08951F93182F81E061E041E018
:100360000E94CC0081E063E040E00E94CC0081E08C
:1003700062E040E00E94CC00812F807F8BBB81E057
:1003800063E041E00E94CC0080EE9EE20197F1F72D
:1003900081E063E040E00E94CC001295107F1BBB1F
:1003A00081E063E041E00E94CC0088EE93E020E928
:1003B00031E0F9013197F1F70197D9F781E063E076
:1003C00040E00E94CC0080E49FE10197F1F71F918B
:1003D0000895AF92BF92CF92DF920F931F93DF9356
:1003E000CF9300D000D0CDB7DEB75B016C01CB015D
:1003F000D601BC01CD0101E01AE00DC02AE030E0D9
:1004000040E050E00E940803C901DA01BC01CD01BF
:10041000019F002D1124611571058105910571F76A
:1004200022C0802F6AE00E94FC02082F90E0A0E02A
:10043000B0E089839A83AB83BC83B501C60129816F
:100440003A814B815C810E940803822F805D0E946B
:10045000AB01B501C60129813A814B815C810E94C3
:1004600008035B016C010230E0F60F900F900F90D3
:100470000F90CF91DF911F910F91DF90CF90BF90A0
:10048000AF9008951F93CF93DF93EC0110E003C06A
:100490000E94AB011F5FFE01E10FF11D80818823E7
:1004A000B9F7DF91CF911F9108951F93182F81E025
:1004B00061E040E00E94CC0081E063E040E00E9407
:1004C000CC0081E062E040E00E94CC008BB3912F31
:1004D000907F8F70982B9BBB81E063E041E00E948E
:1004E000CC0080EE9EE20197F1F781E063E040E00E
:1004F0000E94CC008BB31295107F8F70812B8BBB29
:1005000081E063E041E00E94CC0080EA9FE0019737
:10051000F1F781E063E040E00E94CC0080E29EE4DD
:100520000197F1F71F91089581E00E945502089507
:10053000DF93CF9300D0CDB7DEB790E8998390ECEE
:100540009A83FE01E80FF11D8181860F0E945502FA
:100550000F900F90CF91DF91089581E061E041E02D
:100560000E94470081E062E041E00E94470081E094
:1005700063E041E00E94470080E064E041E00E94C7
:10058000470080E065E041E00E94470080E066E0CF
:1005900041E00E94470080E067E041E00E944700A0
:1005A00088EE93E020E931E0F9013197F1F7019706
:1005B000D9F783E30E94550282E30E94550288E244
:1005C0000E9455028EE00E94550281E00E94550271
:1005D00086E00E94550282E00E94550280E29EE47D
:1005E0000197F1F708950E94AD026CE070E080E0A1
:1005F00090E00E94E901FFCF991B79E004C0991FA8
:10060000961708F0961B881F7A95C9F7809508956C
:1006100097FB092E05260ED057FD04D014D00AD022
:10062000001C38F450954095309521953F4F4F4F21
:100630005F4F0895F6F790958095709561957F4F7F
:100640008F4F9F4F0895A1E21A2EAA1BBB1BFD01DD
:100650000DC0AA1FBB1FEE1FFF1FA217B307E407A1
:10066000F50720F0A21BB30BE40BF50B661F771FF9
:10067000881F991F1A9469F76095709580959095D9
:0E0680009B01AC01BD01CF010895F894FFCF9E
:00000001FF
